{"abi":[{"type":"constructor","inputs":[{"name":"_betterDAO","type":"address","internalType":"address"},{"name":"_vetOracle","type":"address","internalType":"address"}],"stateMutability":"nonpayable"},{"type":"function","name":"buyToken","inputs":[{"name":"_uuid","type":"uint256","internalType":"uint256"}],"outputs":[],"stateMutability":"payable"},{"type":"function","name":"getBetterPerLisitng","inputs":[],"outputs":[{"name":"","type":"uint256","internalType":"uint256"}],"stateMutability":"view"},{"type":"function","name":"getBetterPerSale","inputs":[],"outputs":[{"name":"","type":"uint256","internalType":"uint256"}],"stateMutability":"view"},{"type":"function","name":"getItemByUUID","inputs":[{"name":"_uuid","type":"uint256","internalType":"uint256"}],"outputs":[{"name":"","type":"tuple","internalType":"struct Marketplace.Item","components":[{"name":"seller","type":"address","internalType":"address"},{"name":"price","type":"uint256","internalType":"uint256"},{"name":"bought","type":"bool","internalType":"bool"}]}],"stateMutability":"view"},{"type":"function","name":"getPersonalStats","inputs":[{"name":"_wallet","type":"address","internalType":"address"}],"outputs":[{"name":"","type":"tuple","internalType":"struct Marketplace.PersonalStats","components":[{"name":"numberOfItemsSold","type":"uint256","internalType":"uint256"},{"name":"numberOfItemsBought","type":"uint256","internalType":"uint256"}]}],"stateMutability":"view"},{"type":"function","name":"initializeEntry","inputs":[{"name":"_uuid","type":"uint256","internalType":"uint256"},{"name":"_seller","type":"address","internalType":"address"},{"name":"_price","type":"uint256","internalType":"uint256"}],"outputs":[],"stateMutability":"nonpayable"},{"type":"function","name":"owner","inputs":[],"outputs":[{"name":"","type":"address","internalType":"address"}],"stateMutability":"view"},{"type":"function","name":"renounceOwnership","inputs":[],"outputs":[],"stateMutability":"nonpayable"},{"type":"function","name":"transferOwnership","inputs":[{"name":"newOwner","type":"address","internalType":"address"}],"outputs":[],"stateMutability":"nonpayable"},{"type":"event","name":"OwnershipTransferred","inputs":[{"name":"previousOwner","type":"address","indexed":true,"internalType":"address"},{"name":"newOwner","type":"address","indexed":true,"internalType":"address"}],"anonymous":false},{"type":"error","name":"AlreadyPurchased","inputs":[]},{"type":"error","name":"InsufficientVET","inputs":[]},{"type":"error","name":"ItemDoesntExist","inputs":[]},{"type":"error","name":"OwnableInvalidOwner","inputs":[{"name":"owner","type":"address","internalType":"address"}]},{"type":"error","name":"OwnableUnauthorizedAccount","inputs":[{"name":"account","type":"address","internalType":"address"}]},{"type":"error","name":"TransactionFailed","inputs":[{"name":"data","type":"bytes","internalType":"bytes"}]}],"bytecode":{"object":"0x60806040526064600555600a60065534801561001a57600080fd5b50604051610a74380380610a7483398101604081905261003991610106565b338061005f57604051631e4fbdf760e01b81526000600482015260240160405180910390fd5b6100688161009a565b50600380546001600160a01b039384166001600160a01b03199182161790915560048054929093169116179055610139565b600080546001600160a01b038381166001600160a01b0319831681178455604051919092169283917f8be0079c531659141344cd1fd0a4f28419497f9722a3daafe3b4186f6b6457e09190a35050565b80516001600160a01b038116811461010157600080fd5b919050565b6000806040838503121561011957600080fd5b610122836100ea565b9150610130602084016100ea565b90509250929050565b61092c806101486000396000f3fe6080604052600436106100865760003560e01c80638da5cb5b116100595780638da5cb5b146101565780639823538e1461017e578063ba1d89951461019e578063ed73105c14610241578063f2fde38b1461025657600080fd5b806313b9b7fc1461008b5780632d296bf1146100af578063715018a6146100c45780637693af5d146100d9575b600080fd5b34801561009757600080fd5b506006545b6040519081526020015b60405180910390f35b6100c26100bd366004610766565b610276565b005b3480156100d057600080fd5b506100c26104e9565b3480156100e557600080fd5b5061013b6100f436600461079b565b6040805180820190915260008082526020820152506001600160a01b0316600090815260026020908152604091829020825180840190935280548352600101549082015290565b604080518251815260209283015192810192909252016100a6565b34801561016257600080fd5b506000546040516001600160a01b0390911681526020016100a6565b34801561018a57600080fd5b506100c26101993660046107bd565b6104fd565b3480156101aa57600080fd5b506102146101b9366004610766565b6040805160608082018352600080835260208084018290529284018190529384526001808352938390208351918201845280546001600160a01b03168252938401549181019190915260029092015460ff1615159082015290565b6040805182516001600160a01b0316815260208084015190820152918101511515908201526060016100a6565b34801561024d57600080fd5b5060055461009c565b34801561026257600080fd5b506100c261027136600461079b565b6105ab565b600081815260016020526040902060020154819060ff16156102ab57604051630cd9ed5560e21b815260040160405180910390fd5b60008281526001602052604090205482906001600160a01b03166102e2576040516345772a1360e11b815260040160405180910390fd5b6000670de0b6b3a76400006102f56105e9565b6102ff9034610808565b6103099190610825565b9050806001600086815260200190815260200160002060010154111561034257604051639fcc2ee760e01b815260040160405180910390fd5b600061034f601434610825565b90506000806103666000546001600160a01b031690565b6001600160a01b03168360405160006040518083038185875af1925050503d80600081146103b0576040519150601f19603f3d011682016040523d82523d6000602084013e6103b5565b606091505b506000898152600160205260408120549294509092509081906001600160a01b03166103e18634610847565b604051600081818185875af1925050503d806000811461041d576040519150601f19603f3d011682016040523d82523d6000602084013e610422565b606091505b509150915083610450578260405163fe3c766760e01b8152600401610447919061085a565b60405180910390fd5b81610470578060405163fe3c766760e01b8152600401610447919061085a565b600089815260016020819052604090912060028101805460ff1916909217909155546005546104a8916001600160a01b03169061066d565b6104b43360055461066d565b33600090815260026020526040812060019081018054919290916104d99084906108a8565b9091555050505050505050505050565b6104f16106e9565b6104fb6000610716565b565b6105056106e9565b604080516060810182526001600160a01b03848116825260208083018581526000848601818152898252600193849052959020935184546001600160a01b031916931692909217835590519082015590516002909101805460ff191691151591909117905560065461057890839061066d565b6001600160a01b03821660009081526002602052604081208054600192906105a19084906108a8565b9091555050505050565b6105b36106e9565b6001600160a01b0381166105dd57604051631e4fbdf760e01b815260006004820152602401610447565b6105e681610716565b50565b6004805460408051634c6afee560e11b8152905160009384936001600160a01b0316926398d5fdca92818301926020928290030181865afa158015610632573d6000803e3d6000fd5b505050506040513d601f19601f8201168201806040525081019061065691906108bb565b9050610667816402540be400610808565b91505090565b60035460405163a9059cbb60e01b81526001600160a01b038481166004830152602482018490529091169063a9059cbb906044016020604051808303816000875af11580156106c0573d6000803e3d6000fd5b505050506040513d601f19601f820116820180604052508101906106e491906108d4565b505050565b6000546001600160a01b031633146104fb5760405163118cdaa760e01b8152336004820152602401610447565b600080546001600160a01b038381166001600160a01b0319831681178455604051919092169283917f8be0079c531659141344cd1fd0a4f28419497f9722a3daafe3b4186f6b6457e09190a35050565b60006020828403121561077857600080fd5b5035919050565b80356001600160a01b038116811461079657600080fd5b919050565b6000602082840312156107ad57600080fd5b6107b68261077f565b9392505050565b6000806000606084860312156107d257600080fd5b833592506107e26020850161077f565b9150604084013590509250925092565b634e487b7160e01b600052601160045260246000fd5b808202811582820484141761081f5761081f6107f2565b92915050565b60008261084257634e487b7160e01b600052601260045260246000fd5b500490565b8181038181111561081f5761081f6107f2565b600060208083528351808285015260005b818110156108875785810183015185820160400152820161086b565b506000604082860101526040601f19601f8301168501019250505092915050565b8082018082111561081f5761081f6107f2565b6000602082840312156108cd57600080fd5b5051919050565b6000602082840312156108e657600080fd5b815180151581146107b657600080fdfea26469706673582212208e7f4f529bf63a83b2f942df2fdf315b38fdbb9577454438fb2741835197f0a564736f6c63430008140033","linkReferences":{}},"methodIdentifiers":{"buyToken(uint256)":"2d296bf1","getBetterPerLisitng()":"13b9b7fc","getBetterPerSale()":"ed73105c","getItemByUUID(uint256)":"ba1d8995","getPersonalStats(address)":"7693af5d","initializeEntry(uint256,address,uint256)":"9823538e","owner()":"8da5cb5b","renounceOwnership()":"715018a6","transferOwnership(address)":"f2fde38b"},"id":29}