{"abi":[{"type":"constructor","inputs":[],"stateMutability":"nonpayable"},{"type":"function","name":"getPrice","inputs":[],"outputs":[{"name":"","type":"uint256","internalType":"uint256"}],"stateMutability":"view"},{"type":"function","name":"owner","inputs":[],"outputs":[{"name":"","type":"address","internalType":"address"}],"stateMutability":"view"},{"type":"function","name":"renounceOwnership","inputs":[],"outputs":[],"stateMutability":"nonpayable"},{"type":"function","name":"transferOwnership","inputs":[{"name":"newOwner","type":"address","internalType":"address"}],"outputs":[],"stateMutability":"nonpayable"},{"type":"function","name":"updatePrice","inputs":[{"name":"_priceInUSD","type":"uint256","internalType":"uint256"}],"outputs":[],"stateMutability":"nonpayable"},{"type":"event","name":"OwnershipTransferred","inputs":[{"name":"previousOwner","type":"address","indexed":true,"internalType":"address"},{"name":"newOwner","type":"address","indexed":true,"internalType":"address"}],"anonymous":false},{"type":"event","name":"PriceUpdate","inputs":[{"name":"newPrice","type":"uint256","indexed":false,"internalType":"uint256"}],"anonymous":false},{"type":"error","name":"OwnableInvalidOwner","inputs":[{"name":"owner","type":"address","internalType":"address"}]},{"type":"error","name":"OwnableUnauthorizedAccount","inputs":[{"name":"account","type":"address","internalType":"address"}]}],"bytecode":{"object":"0x608060405234801561001057600080fd5b50338061003757604051631e4fbdf760e01b81526000600482015260240160405180910390fd5b61004081610046565b50610096565b600080546001600160a01b038381166001600160a01b0319831681178455604051919092169283917f8be0079c531659141344cd1fd0a4f28419497f9722a3daafe3b4186f6b6457e09190a35050565b61021d806100a56000396000f3fe608060405234801561001057600080fd5b50600436106100575760003560e01c8063715018a61461005c5780638d6cc56d146100665780638da5cb5b1461007957806398d5fdca14610099578063f2fde38b146100aa575b600080fd5b6100646100bd565b005b61006461007436600461019e565b6100d1565b6000546040516001600160a01b0390911681526020015b60405180910390f35b600154604051908152602001610090565b6100646100b83660046101b7565b6100de565b6100c5610121565b6100cf600061014e565b565b6100d9610121565b600155565b6100e6610121565b6001600160a01b03811661011557604051631e4fbdf760e01b8152600060048201526024015b60405180910390fd5b61011e8161014e565b50565b6000546001600160a01b031633146100cf5760405163118cdaa760e01b815233600482015260240161010c565b600080546001600160a01b038381166001600160a01b0319831681178455604051919092169283917f8be0079c531659141344cd1fd0a4f28419497f9722a3daafe3b4186f6b6457e09190a35050565b6000602082840312156101b057600080fd5b5035919050565b6000602082840312156101c957600080fd5b81356001600160a01b03811681146101e057600080fd5b939250505056fea2646970667358221220564e0b91927278764a88311544ac6a5e61e315aab7507a9dea835a85f1373df264736f6c63430008140033","linkReferences":{}},"methodIdentifiers":{"getPrice()":"98d5fdca","owner()":"8da5cb5b","renounceOwnership()":"715018a6","transferOwnership(address)":"f2fde38b","updatePrice(uint256)":"8d6cc56d"},"id":27}